{
  "_format": "hh-sol-artifact-1",
  "contractName": "Router",
  "sourceName": "contracts/Router.sol",
  "abi": [
    {
      "inputs": [
        {
          "internalType": "address",
          "name": "permit2",
          "type": "address"
        },
        {
          "internalType": "address",
          "name": "routerRewardsDistributor",
          "type": "address"
        },
        {
          "internalType": "address",
          "name": "looksRareRewardsDistributor",
          "type": "address"
        },
        {
          "internalType": "address",
          "name": "looksRareToken",
          "type": "address"
        },
        {
          "internalType": "address",
          "name": "v2Factory",
          "type": "address"
        },
        {
          "internalType": "address",
          "name": "v3Factory",
          "type": "address"
        },
        {
          "internalType": "bytes32",
          "name": "pairInitCodeHash",
          "type": "bytes32"
        },
        {
          "internalType": "bytes32",
          "name": "poolInitCodeHash",
          "type": "bytes32"
        }
      ],
      "stateMutability": "nonpayable",
      "type": "constructor"
    },
    {
      "inputs": [],
      "name": "ETHNotAccepted",
      "type": "error"
    },
    {
      "inputs": [
        {
          "internalType": "uint256",
          "name": "commandIndex",
          "type": "uint256"
        },
        {
          "internalType": "bytes",
          "name": "message",
          "type": "bytes"
        }
      ],
      "name": "ExecutionFailed",
      "type": "error"
    },
    {
      "inputs": [],
      "name": "InsufficientETH",
      "type": "error"
    },
    {
      "inputs": [],
      "name": "InsufficientToken",
      "type": "error"
    },
    {
      "inputs": [],
      "name": "InvalidBips",
      "type": "error"
    },
    {
      "inputs": [
        {
          "internalType": "uint256",
          "name": "commandType",
          "type": "uint256"
        }
      ],
      "name": "InvalidCommandType",
      "type": "error"
    },
    {
      "inputs": [],
      "name": "InvalidOwnerERC1155",
      "type": "error"
    },
    {
      "inputs": [],
      "name": "InvalidOwnerERC721",
      "type": "error"
    },
    {
      "inputs": [],
      "name": "InvalidPath",
      "type": "error"
    },
    {
      "inputs": [],
      "name": "InvalidReserves",
      "type": "error"
    },
    {
      "inputs": [],
      "name": "LengthMismatch",
      "type": "error"
    },
    {
      "inputs": [],
      "name": "SliceOutOfBounds",
      "type": "error"
    },
    {
      "inputs": [],
      "name": "SliceOverflow",
      "type": "error"
    },
    {
      "inputs": [],
      "name": "ToAddressOutOfBounds",
      "type": "error"
    },
    {
      "inputs": [],
      "name": "ToAddressOverflow",
      "type": "error"
    },
    {
      "inputs": [],
      "name": "ToUint24OutOfBounds",
      "type": "error"
    },
    {
      "inputs": [],
      "name": "ToUint24Overflow",
      "type": "error"
    },
    {
      "inputs": [],
      "name": "TransactionDeadlinePassed",
      "type": "error"
    },
    {
      "inputs": [],
      "name": "UnableToClaim",
      "type": "error"
    },
    {
      "inputs": [],
      "name": "V2TooLittleReceived",
      "type": "error"
    },
    {
      "inputs": [],
      "name": "V2TooMuchRequested",
      "type": "error"
    },
    {
      "inputs": [],
      "name": "V3InvalidAmountOut",
      "type": "error"
    },
    {
      "inputs": [],
      "name": "V3InvalidCaller",
      "type": "error"
    },
    {
      "inputs": [],
      "name": "V3InvalidSwap",
      "type": "error"
    },
    {
      "inputs": [],
      "name": "V3TooLittleReceived",
      "type": "error"
    },
    {
      "inputs": [],
      "name": "V3TooMuchRequested",
      "type": "error"
    },
    {
      "anonymous": false,
      "inputs": [
        {
          "indexed": false,
          "internalType": "uint256",
          "name": "amount",
          "type": "uint256"
        }
      ],
      "name": "RewardsSent",
      "type": "event"
    },
    {
      "inputs": [
        {
          "internalType": "bytes",
          "name": "looksRareClaim",
          "type": "bytes"
        }
      ],
      "name": "collectRewards",
      "outputs": [],
      "stateMutability": "nonpayable",
      "type": "function"
    },
    {
      "inputs": [
        {
          "internalType": "bytes",
          "name": "commands",
          "type": "bytes"
        },
        {
          "internalType": "bytes[]",
          "name": "inputs",
          "type": "bytes[]"
        }
      ],
      "name": "execute",
      "outputs": [],
      "stateMutability": "payable",
      "type": "function"
    },
    {
      "inputs": [
        {
          "internalType": "bytes",
          "name": "commands",
          "type": "bytes"
        },
        {
          "internalType": "bytes[]",
          "name": "inputs",
          "type": "bytes[]"
        },
        {
          "internalType": "uint256",
          "name": "deadline",
          "type": "uint256"
        }
      ],
      "name": "execute",
      "outputs": [],
      "stateMutability": "payable",
      "type": "function"
    },
    {
      "inputs": [],
      "name": "looksRareRewardsDistributor",
      "outputs": [
        {
          "internalType": "address",
          "name": "",
          "type": "address"
        }
      ],
      "stateMutability": "view",
      "type": "function"
    },
    {
      "inputs": [],
      "name": "looksRareToken",
      "outputs": [
        {
          "internalType": "contract ERC20",
          "name": "",
          "type": "address"
        }
      ],
      "stateMutability": "view",
      "type": "function"
    },
    {
      "inputs": [
        {
          "internalType": "address",
          "name": "",
          "type": "address"
        },
        {
          "internalType": "address",
          "name": "",
          "type": "address"
        },
        {
          "internalType": "uint256[]",
          "name": "",
          "type": "uint256[]"
        },
        {
          "internalType": "uint256[]",
          "name": "",
          "type": "uint256[]"
        },
        {
          "internalType": "bytes",
          "name": "",
          "type": "bytes"
        }
      ],
      "name": "onERC1155BatchReceived",
      "outputs": [
        {
          "internalType": "bytes4",
          "name": "",
          "type": "bytes4"
        }
      ],
      "stateMutability": "pure",
      "type": "function"
    },
    {
      "inputs": [
        {
          "internalType": "address",
          "name": "",
          "type": "address"
        },
        {
          "internalType": "address",
          "name": "",
          "type": "address"
        },
        {
          "internalType": "uint256",
          "name": "",
          "type": "uint256"
        },
        {
          "internalType": "uint256",
          "name": "",
          "type": "uint256"
        },
        {
          "internalType": "bytes",
          "name": "",
          "type": "bytes"
        }
      ],
      "name": "onERC1155Received",
      "outputs": [
        {
          "internalType": "bytes4",
          "name": "",
          "type": "bytes4"
        }
      ],
      "stateMutability": "pure",
      "type": "function"
    },
    {
      "inputs": [
        {
          "internalType": "address",
          "name": "",
          "type": "address"
        },
        {
          "internalType": "address",
          "name": "",
          "type": "address"
        },
        {
          "internalType": "uint256",
          "name": "",
          "type": "uint256"
        },
        {
          "internalType": "bytes",
          "name": "",
          "type": "bytes"
        }
      ],
      "name": "onERC721Received",
      "outputs": [
        {
          "internalType": "bytes4",
          "name": "",
          "type": "bytes4"
        }
      ],
      "stateMutability": "pure",
      "type": "function"
    },
    {
      "inputs": [],
      "name": "routerRewardsDistributor",
      "outputs": [
        {
          "internalType": "address",
          "name": "",
          "type": "address"
        }
      ],
      "stateMutability": "view",
      "type": "function"
    },
    {
      "inputs": [
        {
          "internalType": "bytes4",
          "name": "interfaceId",
          "type": "bytes4"
        }
      ],
      "name": "supportsInterface",
      "outputs": [
        {
          "internalType": "bool",
          "name": "",
          "type": "bool"
        }
      ],
      "stateMutability": "pure",
      "type": "function"
    },
    {
      "inputs": [
        {
          "internalType": "int256",
          "name": "amount0Delta",
          "type": "int256"
        },
        {
          "internalType": "int256",
          "name": "amount1Delta",
          "type": "int256"
        },
        {
          "internalType": "bytes",
          "name": "data",
          "type": "bytes"
        }
      ],
      "name": "uniswapV3SwapCallback",
      "outputs": [],
      "stateMutability": "nonpayable",
      "type": "function"
    },
    {
      "stateMutability": "payable",
      "type": "receive"
    }
  ],
  "bytecode": "0x610180346200015e5762003ea138819003601f8101601f191683016001600160401b038111848210176200016357839282916040528339610100928391810103126200015e57620000508162000179565b906200005f6020820162000179565b916200006e6040830162000179565b906200007d6060840162000179565b926200008c6080820162000179565b906200009b60a0820162000179565b9160e060c08301519201519360805260a05260c05260001960005560e05284526101209283526101409081526101609160018060a01b0316825260405192613d1294856200018f8639608051858181611271015261274b015260a0518581816128ab01528181612eea0152613116015260c05185818161288a01528181612ec90152613138015260e05185613b6a01525184613b9c0152518381816104a50152610630015251828181610537015261079001525181818161043501526105d00152f35b600080fd5b634e487b7160e01b600052604160045260246000fd5b51906001600160a01b03821682036200015e5756fe6080604052600436101561001b575b361561001957600080fd5b005b60003560e01c806301ffc9a7146100f7578063150b7a02146100ee57806324856bc3146100e55780633593564c146100dc57806336db9fb2146100d35780635abe7a36146100ca578063709a1cc2146100c157806394732f59146100b8578063bc197c81146100af578063f23a6e61146100a65763fa461e330361000e576100a161090e565b61000e565b506100a161087c565b506100a16107b4565b506100a1610744565b506100a16104c9565b506100a1610459565b506100a16103e9565b506100a161033b565b506100a16102cb565b506100a1610208565b50346101b75760207ffffffffffffffffffffffffffffffffffffffffffffffffffffffffffffffffc3601126101b7576004357fffffffff0000000000000000000000000000000000000000000000000000000081168091036101b757807f4e2312e0000000000000000000000000000000000000000000000000000000006020921490811561018d575b506040519015158152f35b7f150b7a020000000000000000000000000000000000000000000000000000000091501438610182565b600080fd5b73ffffffffffffffffffffffffffffffffffffffff8116036101b757565b9181601f840112156101b75782359167ffffffffffffffff83116101b757602083818601950101116101b757565b50346101b75760807ffffffffffffffffffffffffffffffffffffffffffffffffffffffffffffffffc3601126101b7576102436004356101bc565b61024e6024356101bc565b60643567ffffffffffffffff81116101b75761026e9036906004016101da565b505060206040517f150b7a02000000000000000000000000000000000000000000000000000000008152f35b9181601f840112156101b75782359167ffffffffffffffff83116101b7576020808501948460051b0101116101b757565b5060407ffffffffffffffffffffffffffffffffffffffffffffffffffffffffffffffffc3601126101b75767ffffffffffffffff6004358181116101b7576103179036906004016101da565b906024359283116101b75761033361001993369060040161029a565b929091610d4d565b5060607ffffffffffffffffffffffffffffffffffffffffffffffffffffffffffffffffc3601126101b75767ffffffffffffffff6004358181116101b7576103879036906004016101da565b90916024359081116101b7576103a190369060040161029a565b9160443542116103b45761001993610d4d565b60046040517f5bf6f916000000000000000000000000000000000000000000000000000000008152fd5b60009103126101b757565b50346101b75760007ffffffffffffffffffffffffffffffffffffffffffffffffffffffffffffffffc3601126101b757602060405173ffffffffffffffffffffffffffffffffffffffff7f0000000000000000000000000000000000000000000000000000000000000000168152f35b50346101b75760007ffffffffffffffffffffffffffffffffffffffffffffffffffffffffffffffffc3601126101b757602060405173ffffffffffffffffffffffffffffffffffffffff7f0000000000000000000000000000000000000000000000000000000000000000168152f35b50346101b7576020807ffffffffffffffffffffffffffffffffffffffffffffffffffffffffffffffffc3601126101b75760043567ffffffffffffffff81116101b75761051a9036906004016101da565b60409291925192838061053260009687958695611fdb565b0390827f00000000000000000000000000000000000000000000000000000000000000005af1610560610fad565b501561071a576040517f70a082310000000000000000000000000000000000000000000000000000000081523060048201527f1e8f03f716bc104bf7d728131967a0c771e85ab54d09c1e2d6ed9e0bc4e2a16c9161069d919073ffffffffffffffffffffffffffffffffffffffff7f0000000000000000000000000000000000000000000000000000000000000000168183602481845afa92831561070d575b86936106de575b506040517fa9059cbb0000000000000000000000000000000000000000000000000000000081527f000000000000000000000000000000000000000000000000000000000000000073ffffffffffffffffffffffffffffffffffffffff16600482015260248101849052908290829060449082908a905af180156106d1575b6106a3575b50506040519081529081906020820190565b0390a180f35b816106c292903d106106ca575b6106ba8183610c0c565b810190611fe9565b50388061068b565b503d6106b0565b6106d9610eb7565b610686565b6106ff919350823d8411610706575b6106f78183610c0c565b810190610ea8565b9138610607565b503d6106ed565b610715610eb7565b610600565b60046040517f7d529919000000000000000000000000000000000000000000000000000000008152fd5b50346101b75760007ffffffffffffffffffffffffffffffffffffffffffffffffffffffffffffffffc3601126101b757602060405173ffffffffffffffffffffffffffffffffffffffff7f0000000000000000000000000000000000000000000000000000000000000000168152f35b50346101b75760a07ffffffffffffffffffffffffffffffffffffffffffffffffffffffffffffffffc3601126101b7576107ef6004356101bc565b6107fa6024356101bc565b67ffffffffffffffff6044358181116101b75761081b90369060040161029a565b50506064358181116101b75761083590369060040161029a565b50506084359081116101b75761084f9036906004016101da565b50506040517fbc197c81000000000000000000000000000000000000000000000000000000008152602090f35b50346101b75760a07ffffffffffffffffffffffffffffffffffffffffffffffffffffffffffffffffc3601126101b7576108b76004356101bc565b6108c26024356101bc565b60843567ffffffffffffffff81116101b7576108e29036906004016101da565b505060206040517ff23a6e61000000000000000000000000000000000000000000000000000000008152f35b50346101b75760607ffffffffffffffffffffffffffffffffffffffffffffffffffffffffffffffffc3601126101b75760043560243560443567ffffffffffffffff81116101b7576109649036906004016101da565b6000939184831391821580610ac3575b610a995781610988916109b99301906133da565b73ffffffffffffffffffffffffffffffffffffffff929192809116956109ad84613487565b81839893969296613a94565b8333911603610a6f5715610a615750808216908416105b156109e55750506109e2923391612abf565b80f35b81519193925090604211610a21575090610a13610a0d610a08610a1b959461345c565b613421565b9161351b565b903390613941565b50505080f35b90915083548211610a37576109e2923391612abf565b60046040517f739dbe52000000000000000000000000000000000000000000000000000000008152fd5b9450808416908216106109d0565b60046040517f32b13d91000000000000000000000000000000000000000000000000000000008152fd5b60046040517f316cf0eb000000000000000000000000000000000000000000000000000000008152fd5b5085851315610974565b507f4e487b7100000000000000000000000000000000000000000000000000000000600052603260045260246000fd5b90821015610b09570190565b610b11610acd565b0190565b9190811015610b76575b60051b810135907fffffffffffffffffffffffffffffffffffffffffffffffffffffffffffffffe1813603018212156101b757019081359167ffffffffffffffff83116101b75760200182360381136101b7579190565b610b7e610acd565b610b1f565b507f4e487b7100000000000000000000000000000000000000000000000000000000600052604160045260246000fd5b67ffffffffffffffff8111610bc757604052565b610bcf610b83565b604052565b6040810190811067ffffffffffffffff821117610bc757604052565b6020810190811067ffffffffffffffff821117610bc757604052565b90601f7fffffffffffffffffffffffffffffffffffffffffffffffffffffffffffffffe0910116810190811067ffffffffffffffff821117610bc757604052565b7fffffffffffffffffffffffffffffffffffffffffffffffffffffffffffffffe0601f60209267ffffffffffffffff8111610c89575b01160190565b610c91610b83565b610c83565b929192610ca282610c4d565b91610cb06040519384610c0c565b8294818452818301116101b7578281602093846000960137010152565b60005b838110610ce05750506000910152565b8181015183820152602001610cd0565b907fffffffffffffffffffffffffffffffffffffffffffffffffffffffffffffffe0601f602093610d2c81518092818752878088019101610ccd565b0116010190565b604090610d4a939281528160208201520190610cf0565b90565b919290808203610e3d5760005b818110610d68575050505050565b610d9c610d76828487610afd565b357fff000000000000000000000000000000000000000000000000000000000000001690565b610dc0610db4610dad84878a610b15565b3691610c96565b601f8360f81c166111f9565b9190159081610e12575b50610dd85750600101610d5a565b90610e0e6040519283927f2c4029e900000000000000000000000000000000000000000000000000000000845260048401610d33565b0390fd5b7f80000000000000000000000000000000000000000000000000000000000000009150161538610dca565b60046040517fff633a38000000000000000000000000000000000000000000000000000000008152fd5b5190610e72826101bc565b565b91908260809103126101b7578151610e8b816101bc565b916020810151610e9a816101bc565b916060604083015192015190565b908160209103126101b7575190565b506040513d6000823e3d90fd5b908160609103126101b7578051610eda816101bc565b9160406020830151610eeb816101bc565b92015190565b908160209103126101b75751610d4a816101bc565b91908260409103126101b75760208251610eeb816101bc565b908160609103126101b75780519160406020830151610eeb816101bc565b81601f820112156101b7578051610f5381610c4d565b92610f616040519485610c0c565b818452602082840101116101b757610d4a9160208085019101610ccd565b9190916040818403126101b757805192602082015167ffffffffffffffff81116101b757610d4a9201610f3d565b3d15610fd8573d90610fbe82610c4d565b91610fcc6040519384610c0c565b82523d6000602084013e565b606090565b519081151582036101b757565b919060a0838203126101b7578251611001816101bc565b9260208101519260408201519260608301519067ffffffffffffffff82116101b757611034608091610d4a938601610f3d565b9301610fdd565b9160a0838303126101b757825192602092838201519360408301519167ffffffffffffffff928381116101b757840181601f820112156101b75780519384116110df575b8360051b906040519461109485840187610c0c565b855283808601928201019283116101b7578301905b8282106110c6575050505091610d4a608061103460608501610e67565b83809183516110d4816101bc565b8152019101906110a9565b6110e7610b83565b61107f565b908160609103126101b7578051611102816101bc565b9160406020830151611113816101bc565b920151610d4a816101bc565b906020828203126101b757815167ffffffffffffffff81116101b757610d4a9201610f3d565b6024610e72919392936040519485917f2a2d80d100000000000000000000000000000000000000000000000000000000602084015261118d8151809260208787019101610ccd565b82016111a28251809360208785019101610ccd565b01036004810185520183610c0c565b6024610e72919392936040519485917f2b67b57000000000000000000000000000000000000000000000000000000000602084015261118d8151809260208787019101610ccd565b6060600191801560001461129e57505050600061126861122383602080859651830101910161111f565b604080513360208201529061126390829081015b037fffffffffffffffffffffffffffffffffffffffffffffffffffffffffffffffe08101835282610c0c565b6111b1565b602081519101827f00000000000000000000000000000000000000000000000000000000000000005af161129a610fad565b9091565b601981036112df5750505060006112686112c283602080859651830101910161111f565b60408051336020820152906112da9082908101611237565b611145565b91939092909160178103611326575061130481602080610e72945183010191016110ec565b9173ffffffffffffffffffffffffffffffffffffffff80921691339116612730565b808503611364575061134481602080610e7294518301019101610ec4565b9173ffffffffffffffffffffffffffffffffffffffff9182169116611ffd565b6004908082036113ca57505061138681602080610e729451830101910161103b565b90939290156113ae5773ffffffffffffffffffffffffffffffffffffffff33945b169261284b565b73ffffffffffffffffffffffffffffffffffffffff30946113a7565b6005810361142e5750506113ea81602080610e729451830101910161103b565b90939290156114125773ffffffffffffffffffffffffffffffffffffffff33945b1692613110565b73ffffffffffffffffffffffffffffffffffffffff309461140b565b6002810361149057505061144e81602080610e7294518301019101610fea565b909290156114745773ffffffffffffffffffffffffffffffffffffffff33945b166136c1565b73ffffffffffffffffffffffffffffffffffffffff309461146e565b600381036114f25750506114b081602080610e7294518301019101610fea565b909290156114d65773ffffffffffffffffffffffffffffffffffffffff33945b16613823565b73ffffffffffffffffffffffffffffffffffffffff30946114d0565b6006819692939594961460001461153f5750505050600061151d826020808495518301019101610f7f565b90602082519201906e6c3852cbef3e08e8df289169ede5815af161129a610fad565b600a810361158857505050506000611561826020808495518301019101610f7f565b9060208251920190730fc584529a2aefa997697fafacba5831fac0c22d5af161129a610fad565b600b810361159d575050505061129a90611d6f565b600c81036115b2575050505061129a90611d0f565b600d81036115c7575050505061129a90611f7b565b600e81036115dc575050505061129a90611e85565b600f81036115f1575050505061129a90611bfe565b6012810361163a57505050506000611613826020808495518301019101610f7f565b9060208251920190732b2e8cda09bba9660dca5cb6233787738ad683295af161129a610fad565b601381036116835750505050600061165c826020808495518301019101610f7f565b906020825192019073a42f6cada809bcf417deefbdd69c5c5a909249c05af161129a610fad565b6016819592939495146000146117cd5750806020806116a793518301019101610f1f565b939073b47e3cd837ddf8e4c57f05d70ab865de6e193bbb90813b156101b75760405180967f8264fe98000000000000000000000000000000000000000000000000000000008252600097889181806117068a8a83019190602083019252565b0391875af190816117ba575b5061171f57505050505091565b8197959394973b156117b657604080517f8b72a2ec00000000000000000000000000000000000000000000000000000000815273ffffffffffffffffffffffffffffffffffffffff9290921693820193845260208401959095529384928391859183910103925af180156117a9575b611796575b50565b806117a3610e7292610bb3565b806103de565b6117b1610eb7565b61178e565b8380fd5b806117a36117c792610bb3565b38611712565b9194929091600981036118125750506117f281602080610e7294518301019101610ec4565b9173ffffffffffffffffffffffffffffffffffffffff9182169116612254565b6011810361185257505061183281602080610e7294518301019101610ec4565b9173ffffffffffffffffffffffffffffffffffffffff9182169116612371565b601a810361189457505061187281602080610e7294518301019101610e74565b92909173ffffffffffffffffffffffffffffffffffffffff8091169116612413565b600781036118d057505073ffffffffffffffffffffffffffffffffffffffff6118c982602080610e7295518301019101610f06565b91166124a3565b6008810361190c57505073ffffffffffffffffffffffffffffffffffffffff61190582602080610e7295518301019101610f06565b911661261c565b6010810361194c57505061192c81602080610e7294518301019101610ec4565b9173ffffffffffffffffffffffffffffffffffffffff918216911661214c565b90945060148103611a5e57506119ac611972916020928184808094518301019101610ec4565b604093919351809581927f6352211e0000000000000000000000000000000000000000000000000000000083528b83019190602083019252565b038173ffffffffffffffffffffffffffffffffffffffff8096165afa928315611a51575b600093611a20575b5081169116149384156119e9575050565b909192507f7dbe7e8900000000000000000000000000000000000000000000000000000000604051928301528152610d4a81610bd4565b82919350611a4390853d8711611a4a575b611a3b8183610c0c565b810190610ef1565b92906119d8565b503d611a31565b611a59610eb7565b6119d0565b60158103611b795750611a8190611af56020928284808095518301019101610e74565b94929391906040519485809481937efdd58e0000000000000000000000000000000000000000000000000000000083528d73ffffffffffffffffffffffffffffffffffffffff8095169084016020909392919373ffffffffffffffffffffffffffffffffffffffff60408201951681520152565b0392165afa908115611b6c575b600091611b4f575b501093841594611b18575050565b909192507f483a692900000000000000000000000000000000000000000000000000000000604051928301528152610d4a81610bd4565b611b669150833d8511610706576106f78183610c0c565b38611b0a565b611b74610eb7565b611b02565b6040517fd76a1e9e0000000000000000000000000000000000000000000000000000000081528086019182529081906020010390fd5b909160a0828403126101b75781519260208301519067ffffffffffffffff82116101b757611bde918401610f3d565b916040810151611bed816101bc565b9160806060830151610eeb816101bc565b611c119060208082518301019101611baf565b73ffffffffffffffffffffffffffffffffffffffff95929593919380941694600083819492602083945192019073cda72070e455bb31c7690a170224ce43623d0b6f5af194611c5e610fad565b9486611c6f575b5050505090919250565b813b156117b6576040517f42842e0e000000000000000000000000000000000000000000000000000000008152306004820152971673ffffffffffffffffffffffffffffffffffffffff16602488015260448701919091529394929391929182908183816064810103925af18015611d02575b611cf3575b90818080869594611c65565b611cfc90610bb3565b38611ce7565b611d0a610eb7565b611ce2565b611d229060208082518301019101611baf565b73ffffffffffffffffffffffffffffffffffffffff9592959391938094169460008381949260208394519201907374312363e45dcaba76c59ec49a7aa8a65a67eed35af194611c5e610fad565b611d829060208082518301019101611baf565b73ffffffffffffffffffffffffffffffffffffffff9592959391938094169460008381949260208394519201907359728544b08ab483533076417fbbb2fd0b17ce3a5af194611c5e610fad565b91909160c0818403126101b75780519260208201519067ffffffffffffffff82116101b757611dff918301610f3d565b916040820151611e0e816101bc565b916060810151611e1d816101bc565b9160a0608083015192015190565b604051611e3781610bf0565b60008152906000368137565b9192610d4a95949160a09473ffffffffffffffffffffffffffffffffffffffff8092168552166020840152604083015260608201528160808201520190610cf0565b611e989060208082518301019101611dcf565b929473ffffffffffffffffffffffffffffffffffffffff969492968097169060008481959260208394519201907374312363e45dcaba76c59ec49a7aa8a65a67eed35af196611ee5610fad565b9688611ef4575b505050505050565b611efc611e2b565b833b15611f775790611f418692604051988997889687957ff242432a000000000000000000000000000000000000000000000000000000008752163060048701611e43565b03925af18015611f6a575b611f5b575b8080808080611eec565b611f6490610bb3565b38611f51565b611f72610eb7565b611f4c565b8580fd5b611f8e9060208082518301019101611dcf565b929473ffffffffffffffffffffffffffffffffffffffff969492968097169060008481959260208394519201907359728544b08ab483533076417fbbb2fd0b17ce3a5af196611ee5610fad565b908092918237016000815290565b908160209103126101b757610d4a90610fdd565b73ffffffffffffffffffffffffffffffffffffffff1691908261202457610e729250613be6565b610e72927f80000000000000000000000000000000000000000000000000000000000000008303613c545791506040517f70a08231000000000000000000000000000000000000000000000000000000008152306004820152602081602481865afa9081156120bb575b60009161209d575b5091613c54565b6120b5915060203d8111610706576106f78183610c0c565b38612096565b6120c3610eb7565b61208e565b507f4e487b7100000000000000000000000000000000000000000000000000000000600052601160045260246000fd5b8181029291811591840414171561210b57565b610e726120c8565b811561211d570490565b7f4e487b7100000000000000000000000000000000000000000000000000000000600052601260045260246000fd5b82158015612249575b61221f5773ffffffffffffffffffffffffffffffffffffffff1680612193575061218d612185610e7293476120f8565b612710900490565b90613be6565b6040517f70a08231000000000000000000000000000000000000000000000000000000008152306004820152610e72939192916121ee916121859190602081602481895afa908115612212575b6000916121f4575b506120f8565b91613c54565b61220c915060203d8111610706576106f78183610c0c565b386121e8565b61221a610eb7565b6121e0565b60046040517fdeaa01e6000000000000000000000000000000000000000000000000000000008152fd5b506127108311612155565b90919073ffffffffffffffffffffffffffffffffffffffff16806122b757504790811061228d5780612284575050565b610e7291613be6565b60046040517f6a12f104000000000000000000000000000000000000000000000000000000008152fd5b6040517f70a0823100000000000000000000000000000000000000000000000000000000815230600482015290929091602083602481875afa928315612364575b600093612344575b50821061231a578161231157505050565b610e7292613c54565b60046040517f675cae38000000000000000000000000000000000000000000000000000000008152fd5b61235d91935060203d8111610706576106f78183610c0c565b9138612300565b61236c610eb7565b6122f8565b73ffffffffffffffffffffffffffffffffffffffff1691823b156101b7576040517f42842e0e00000000000000000000000000000000000000000000000000000000815230600482015273ffffffffffffffffffffffffffffffffffffffff90921660248301526044820152906000908290818381606481015b03925af18015612406575b6123fd5750565b610e7290610bb3565b61240e610eb7565b6123f6565b73ffffffffffffffffffffffffffffffffffffffff909391929316604051936020850185811067ffffffffffffffff821117612496575b60405260008552813b156101b757600080946123eb604051978896879586947ff242432a0000000000000000000000000000000000000000000000000000000086523060048701611e43565b61249e610b83565b61244a565b907f800000000000000000000000000000000000000000000000000000000000000081036125e9575047905b816124d8575050565b73c02aaa39b223fe8d0a0e5c4f27ead9083c756cc291823b156101b757612593926020926040517fd0e30db000000000000000000000000000000000000000000000000000000000815260008160048187875af180156125dc575b6125c9575b5060006040518096819582947fa9059cbb000000000000000000000000000000000000000000000000000000008452600484016020909392919373ffffffffffffffffffffffffffffffffffffffff60408201951681520152565b03925af180156125bc575b6125a55750565b6117939060203d81116106ca576106ba8183610c0c565b6125c4610eb7565b61259e565b806117a36125d692610bb3565b38612538565b6125e4610eb7565b612533565b90478211156124cf5760046040517f6a12f104000000000000000000000000000000000000000000000000000000008152fd5b6040517f70a0823100000000000000000000000000000000000000000000000000000000815230600482015273c02aaa39b223fe8d0a0e5c4f27ead9083c756cc292909190602083602481875afa928315612723575b600093612703575b50821061228d578161268b57505050565b823b156101b7576040517f2e1a7d4d00000000000000000000000000000000000000000000000000000000815260048101839052610e72936000908290602490829084905af180156126f6575b6126e3575b50613be6565b806117a36126f092610bb3565b386126dd565b6126fe610eb7565b6126d8565b61271c91935060203d8111610706576106f78183610c0c565b913861267a565b61272b610eb7565b612672565b919273ffffffffffffffffffffffffffffffffffffffff91827f00000000000000000000000000000000000000000000000000000000000000001693843b156101b75760009484869281608496816040519b8c9a8b997f36c78516000000000000000000000000000000000000000000000000000000008b521660048a01521660248801521660448601521660648401525af18015612406576123fd5750565b602090805115610b09570190565b604090805160011015610b09570190565b6020918151811015612804575b60051b010190565b61280c610acd565b6127fc565b907fffffffffffffffffffffffffffffffffffffffffffffffffffffffffffffffff820191821161210b57565b9190820391821161210b57565b9093926129fb936128cf61287b612861866127d0565b5173ffffffffffffffffffffffffffffffffffffffff1690565b612887612861876127de565b907f00000000000000000000000000000000000000000000000000000000000000007f0000000000000000000000000000000000000000000000000000000000000000612af7565b928381612aa2575b50505061290f6128f66128f66128616128f08751612811565b876127ef565b73ffffffffffffffffffffffffffffffffffffffff1690565b6040519384937f70a0823100000000000000000000000000000000000000000000000000000000928386526020958691818061296b896004830191909173ffffffffffffffffffffffffffffffffffffffff6020820193169052565b03915afa958615612a95575b600096612a56575b50916129ae6128f66128f66128618561299e8a988a6129e09b99612cff565b6129a88151612811565b906127ef565b9060405180958194829383526004830191909173ffffffffffffffffffffffffffffffffffffffff6020820193169052565b03915afa918215612a49575b600092612a2c575b505061283e565b10612a0257565b60046040517f849eaf98000000000000000000000000000000000000000000000000000000008152fd5b612a429250803d10610706576106f78183610c0c565b38806129f4565b612a51610eb7565b6129ec565b85939196506128f66128f66128616129e0979561299e612a856129ae968a3d8c11610706576106f78183610c0c565b9b9698505095975050505061297f565b612a9d610eb7565b612977565b612ab792612ab2612861886127d0565b612abf565b3880836128d7565b92919073ffffffffffffffffffffffffffffffffffffffff8082163003612aeb575050610e7292611ffd565b610e7294931692612730565b9091610d4a93612b0691612c51565b9290915b917fffffffffffffffffffffffffffffffffffffffffffffffffffffffffffffffa0612c3d91612c1073ffffffffffffffffffffffffffffffffffffffff96946040519260208401967fffffffffffffffffffffffffffffffffffffffff000000000000000000000000809260601b16885260601b16603484015260288352606083019583871067ffffffffffffffff881117612c44575b8660405283519020608084019788917fffffffffffffffffffffffffffffffffffffffff000000000000000000000000605594927fff00000000000000000000000000000000000000000000000000000000000000855260601b166001840152601583015260358201520190565b037fffffffffffffffffffffffffffffffffffffffffffffffffffffffffffffff80810184520182610c0c565b5190201690565b612c4c610b83565b612ba2565b73ffffffffffffffffffffffffffffffffffffffff828116908216101561129a5791565b51906dffffffffffffffffffffffffffff821682036101b757565b908160609103126101b757612ca481612c75565b916040612cb360208401612c75565b92015163ffffffff811681036101b75790565b90610d4a949360809373ffffffffffffffffffffffffffffffffffffffff92845260208401521660408201528160608201520190610cf0565b92919092612d24612d12612861836127d0565b612d1e612861846127de565b90612c51565b50916000905b7fffffffffffffffffffffffffffffffffffffffffffffffffffffffffffffffff83510182101561302c57612d6261286183856127ef565b90612d7361286160018501866127ef565b73ffffffffffffffffffffffffffffffffffffffff928383169660409081519485937f0902f1ac00000000000000000000000000000000000000000000000000000000855260609788868d60049889915afa97881561301f575b6000998a99612fe0575b505080612e7c95969798996dffffffffffffffffffffffffffff8091169a169216931683149788600014612fd657918291935b87875180927f70a082310000000000000000000000000000000000000000000000000000000082528180612e606020978896830191909173ffffffffffffffffffffffffffffffffffffffff6020820193169052565b03915afa918215612fc9575b600092612fac575b505003613069565b9315612fa457600093925b86517ffffffffffffffffffffffffffffffffffffffffffffffffffffffffffffffffe01861015612f9a57612f0e90612ec6612861600289018a6127ef565b907f00000000000000000000000000000000000000000000000000000000000000007f0000000000000000000000000000000000000000000000000000000000000000613034565b9390935b97612f1b611e2b565b95813b156101b75760008695612f61600199839751988997889687957f022c0d9f0000000000000000000000000000000000000000000000000000000087528601612cc6565b03925af18015612f8d575b612f7a575b50910190612d2a565b806117a3612f8792610bb3565b38612f71565b612f95610eb7565b612f6c565b5088926000612f12565b600092612e87565b612fc29250803d10610706576106f78183610c0c565b3880612e74565b612fd1610eb7565b612e6c565b9091829193612e0a565b829a50612e7c9697989950908161300b92903d10613018575b6130038183610c0c565b810190612c90565b5099909998979695612dd7565b503d612ff9565b613027610eb7565b612dcd565b505050509050565b926130429061304a93612c51565b918194612b0a565b91565b90601f820180921161210b57565b601701908160171161210b57565b811590818015613108575b6130de5761309a610d4a946103e5928381029381850414901517156130d1575b826120f8565b916103e88085029485041417156130c4575b820180921115612113575b6130bf6120c8565b612113565b6130cc6120c8565b6130ac565b6130d96120c8565b613094565b60046040517f7b9c8916000000000000000000000000000000000000000000000000000000008152fd5b508315613074565b929190937f0000000000000000000000000000000000000000000000000000000000000000947f000000000000000000000000000000000000000000000000000000000000000095600095600285511061326357968451917fffffffffffffffffffffffffffffffffffffffffffffffffffffffffffffffff92838101908111613256575b929190835b6131ec575050505085116131c257610e7294846131bd92612ab2612861866127d0565b612cff565b60046040517f8ab0bc16000000000000000000000000000000000000000000000000000000008152fd5b9298975090918261322a6132238b61321b612861613214818488018e868211613249576127ef565b928c6127ef565b90868661328d565b919b61334d565b99801561323c575b019291908361319a565b6132446120c8565b613232565b6132516120c8565b6127ef565b61325e6120c8565b613195565b60046040517f20db8267000000000000000000000000000000000000000000000000000000008152fd5b9193929061304261329e9286612c51565b92604051907f0902f1ac00000000000000000000000000000000000000000000000000000000825273ffffffffffffffffffffffffffffffffffffffff606083600481848a165afa928315613340575b600090819461331e575b5081906dffffffffffffffffffffffffffff8091169416941691161460001461129a5791565b829450613339915060603d8111613018576130038183610c0c565b50936132f8565b613348610eb7565b6132ee565b9091821580156133d2575b6130de57613369826133a2946120f8565b906103e8918281029281840414901517156133c5575b828103928184116133b8575b6103e580850294850414911417156130b757612113565b600181018091116133b05790565b610d4a6120c8565b6133c06120c8565b61338b565b6133cd6120c8565b61337f565b508015613358565b91906040838203126101b757823567ffffffffffffffff81116101b757830181601f820112156101b757602091818361341593359101610c96565b920135610d4a816101bc565b7f8000000000000000000000000000000000000000000000000000000000000000811461344f575b60000390565b6134576120c8565b613449565b7f80000000000000000000000000000000000000000000000000000000000000008110156101b75790565b9061349182613508565b9160178151106134de57601781015190602b8151106134b4576037015160601c91565b60046040517fa78aa27f000000000000000000000000000000000000000000000000000000008152fd5b60046040517fd9096a3e000000000000000000000000000000000000000000000000000000008152fd5b60148151106134b4576020015160601c90565b80517fffffffffffffffffffffffffffffffffffffffffffffffffffffffffffffffe99182820190828211613650575b816135558161304d565b106136265760176135658361305b565b106136265780516135758361305b565b116135fc57816135945750505050604051600081526020810160405290565b601760405194601f8416801560051b9182828901019687010193010101905b8084106135e95750508252601f017fffffffffffffffffffffffffffffffffffffffffffffffffffffffffffffffe01660405290565b90928351815260208091019301906135b3565b60046040517f3b99b53d000000000000000000000000000000000000000000000000000000008152fd5b60046040517f47aaf07a000000000000000000000000000000000000000000000000000000008152fd5b6136586120c8565b61354b565b602b8151106135fc5760405190600b8083019101603683015b8083106136ae575050602b8252601f017fffffffffffffffffffffffffffffffffffffffffffffffffffffffffffffffe01660405290565b9091825181526020809101920190613676565b93909192937f8000000000000000000000000000000000000000000000000000000000000000831461378c575b939061371e61372c915b6137076042855110159561345c565b851561378657305b6137188661365d565b91613a53565b9091901561377f5750613421565b911561374b5761371e61372c91613743309161351b565b9291906136f8565b5010905061375557565b60046040517f39d35496000000000000000000000000000000000000000000000000000000008152fd5b9050613421565b8761370f565b915061371e61372c916137a46128f66128f688613508565b6040517f70a0823100000000000000000000000000000000000000000000000000000000815230600482015290602090829060249082905afa908115613816575b6000916137f8575b5093915091506136ee565b613810915060203d8111610706576106f78183610c0c565b386137ed565b61381e610eb7565b6137e5565b61383e93919492600055613839610a088661345c565b613941565b909190156138a5575061385090613421565b0361387b577fffffffffffffffffffffffffffffffffffffffffffffffffffffffffffffffff600055565b60046040517fd4e0248e000000000000000000000000000000000000000000000000000000008152fd5b6138af9150613421565b613850565b9073ffffffffffffffffffffffffffffffffffffffff6138e1602092959495604085526040850190610cf0565b9416910152565b91908260409103126101b7576020825192015190565b919360a093610d4a969573ffffffffffffffffffffffffffffffffffffffff80941685521515602085015260408401521660608201528160808201520190610cf0565b6128f692936128f660006040946139df61398661395d8a613487565b73ffffffffffffffffffffffffffffffffffffffff9b9297919b808916908d16109b8c98613a94565b94848414613a35576139aa6401000276a49a5b6112378a51938492602084016138b4565b8751998a97889687957f128acb08000000000000000000000000000000000000000000000000000000008752600487016138fe565b03925af18015613a28575b60009283916139f857509192565b9050613a1c91925060403d8111613a21575b613a148183610c0c565b8101906138e8565b919092565b503d613a0a565b613a30610eb7565b6139ea565b6139aa73fffd8963efd1fc6a506488495d951d5263988d259a613999565b6128f692936128f660006040946139df613986613a6f8a613487565b73ffffffffffffffffffffffffffffffffffffffff9b9297919b808d16908916109b8c985b73ffffffffffffffffffffffffffffffffffffffff9283831684831611613bde575b62ffffff90846040519481602087019516855216604085015216606083015260608252612c3d7fffffffffffffffffffffffffffffffffffffffffffffffffffffffffffffff80608084019284841067ffffffffffffffff851117613bd1575b6040849052845190207fff0000000000000000000000000000000000000000000000000000000000000060a086019081527fffffffffffffffffffffffffffffffffffffffff0000000000000000000000007f000000000000000000000000000000000000000000000000000000000000000060601b1660a187015260b58601919091527f000000000000000000000000000000000000000000000000000000000000000060d5909501949094526055835260f50182610c0c565b613bd9610b83565b613b16565b909190613ab6565b600080809381935af115613bf657565b60646040517f08c379a000000000000000000000000000000000000000000000000000000000815260206004820152601360248201527f4554485f5452414e534645525f4641494c4544000000000000000000000000006044820152fd5b60009182604492602095604051937fa9059cbb000000000000000000000000000000000000000000000000000000008552600485015260248401525af13d15601f3d1160016000511416171615613ca757565b60646040517f08c379a000000000000000000000000000000000000000000000000000000000815260206004820152600f60248201527f5452414e534645525f4641494c454400000000000000000000000000000000006044820152fdfea164736f6c6343000811000a",
  "linkReferences": {},
  "deployedLinkReferences": {}
}